{
  "_format": "hh-sol-artifact-1",
  "contractName": "NFTComprarJuguete",
  "sourceName": "contracts/NFTComprarJuguete.sol",
  "abi": [
    {
      "inputs": [
        {
          "internalType": "address",
          "name": "_nftAddress",
          "type": "address"
        }
      ],
      "stateMutability": "nonpayable",
      "type": "constructor"
    },
    {
      "anonymous": false,
      "inputs": [
        {
          "indexed": true,
          "internalType": "address",
          "name": "user",
          "type": "address"
        },
        {
          "indexed": false,
          "internalType": "bool",
          "name": "success",
          "type": "bool"
        },
        {
          "indexed": false,
          "internalType": "string",
          "name": "message",
          "type": "string"
        }
      ],
      "name": "Attempt",
      "type": "event"
    },
    {
      "anonymous": false,
      "inputs": [
        {
          "indexed": true,
          "internalType": "address",
          "name": "user",
          "type": "address"
        },
        {
          "indexed": false,
          "internalType": "uint256",
          "name": "tokenId",
          "type": "uint256"
        }
      ],
      "name": "NFTCreated",
      "type": "event"
    },
    {
      "anonymous": false,
      "inputs": [
        {
          "indexed": true,
          "internalType": "address",
          "name": "buyer",
          "type": "address"
        },
        {
          "indexed": false,
          "internalType": "uint256",
          "name": "tokenId",
          "type": "uint256"
        },
        {
          "indexed": false,
          "internalType": "string",
          "name": "message",
          "type": "string"
        }
      ],
      "name": "NFTPurchased",
      "type": "event"
    },
    {
      "inputs": [
        {
          "internalType": "string",
          "name": "_imageUrl",
          "type": "string"
        }
      ],
      "name": "buyNFT",
      "outputs": [],
      "stateMutability": "payable",
      "type": "function"
    },
    {
      "inputs": [],
      "name": "getBalance",
      "outputs": [
        {
          "internalType": "uint256",
          "name": "",
          "type": "uint256"
        }
      ],
      "stateMutability": "view",
      "type": "function"
    },
    {
      "inputs": [],
      "name": "nftCrear",
      "outputs": [
        {
          "internalType": "contract NFTCrear",
          "name": "",
          "type": "address"
        }
      ],
      "stateMutability": "view",
      "type": "function"
    },
    {
      "inputs": [],
      "name": "owner",
      "outputs": [
        {
          "internalType": "address",
          "name": "",
          "type": "address"
        }
      ],
      "stateMutability": "view",
      "type": "function"
    },
    {
      "inputs": [],
      "name": "pricePerNFT",
      "outputs": [
        {
          "internalType": "uint256",
          "name": "",
          "type": "uint256"
        }
      ],
      "stateMutability": "view",
      "type": "function"
    },
    {
      "inputs": [
        {
          "internalType": "uint256",
          "name": "_newPrice",
          "type": "uint256"
        }
      ],
      "name": "setPricePerNFT",
      "outputs": [],
      "stateMutability": "nonpayable",
      "type": "function"
    },
    {
      "inputs": [
        {
          "internalType": "address payable",
          "name": "_to",
          "type": "address"
        }
      ],
      "name": "withdrawFunds",
      "outputs": [],
      "stateMutability": "nonpayable",
      "type": "function"
    }
  ],
  "bytecode": "0x6080604052655af3107a400060015534801561001a57600080fd5b50604051610d88380380610d88833981810160405281019061003c9190610126565b336000806101000a81548173ffffffffffffffffffffffffffffffffffffffff021916908373ffffffffffffffffffffffffffffffffffffffff16021790555080600260006101000a81548173ffffffffffffffffffffffffffffffffffffffff021916908373ffffffffffffffffffffffffffffffffffffffff16021790555050610153565b600080fd5b600073ffffffffffffffffffffffffffffffffffffffff82169050919050565b60006100f3826100c8565b9050919050565b610103816100e8565b811461010e57600080fd5b50565b600081519050610120816100fa565b92915050565b60006020828403121561013c5761013b6100c3565b5b600061014a84828501610111565b91505092915050565b610c26806101626000396000f3fe6080604052600436106100705760003560e01c80638d0123001161004e5780638d012300146100f45780638da5cb5b1461011057806395db7a031461013b578063cc9f01941461016657610070565b80630628aa701461007557806312065fe0146100a057806368742da6146100cb575b600080fd5b34801561008157600080fd5b5061008a61018f565b6040516100979190610531565b60405180910390f35b3480156100ac57600080fd5b506100b5610195565b6040516100c29190610531565b60405180910390f35b3480156100d757600080fd5b506100f260048036038101906100ed91906105be565b61019d565b005b61010e60048036038101906101099190610731565b6102b8565b005b34801561011c57600080fd5b506101256103f3565b604051610132919061079b565b60405180910390f35b34801561014757600080fd5b50610150610417565b60405161015d9190610815565b60405180910390f35b34801561017257600080fd5b5061018d6004803603810190610188919061085c565b61043d565b005b60015481565b600047905090565b60008054906101000a900473ffffffffffffffffffffffffffffffffffffffff1673ffffffffffffffffffffffffffffffffffffffff163373ffffffffffffffffffffffffffffffffffffffff161461022b576040517f08c379a00000000000000000000000000000000000000000000000000000000081526004016102229061090c565b60405180910390fd5b6000471161026e576040517f08c379a000000000000000000000000000000000000000000000000000000000815260040161026590610978565b60405180910390fd5b8073ffffffffffffffffffffffffffffffffffffffff166108fc479081150290604051600060405180830381858888f193505050501580156102b4573d6000803e3d6000fd5b5050565b6001543410156102fd576040517f08c379a00000000000000000000000000000000000000000000000000000000081526004016102f490610a0a565b60405180910390fd5b6000600260009054906101000a900473ffffffffffffffffffffffffffffffffffffffff1673ffffffffffffffffffffffffffffffffffffffff1663eacabe1433846040518363ffffffff1660e01b815260040161035c929190610a98565b6020604051808303816000875af115801561037b573d6000803e3d6000fd5b505050506040513d601f19601f8201168201806040525081019061039f9190610add565b90503373ffffffffffffffffffffffffffffffffffffffff167f7d6a444bcc9cff051f19d7e8343deec16f30fcb8a77480716f08820bfd7b56dd826040516103e79190610b56565b60405180910390a25050565b60008054906101000a900473ffffffffffffffffffffffffffffffffffffffff1681565b600260009054906101000a900473ffffffffffffffffffffffffffffffffffffffff1681565b60008054906101000a900473ffffffffffffffffffffffffffffffffffffffff1673ffffffffffffffffffffffffffffffffffffffff163373ffffffffffffffffffffffffffffffffffffffff16146104cb576040517f08c379a00000000000000000000000000000000000000000000000000000000081526004016104c29061090c565b60405180910390fd5b6000811161050e576040517f08c379a000000000000000000000000000000000000000000000000000000000815260040161050590610bd0565b60405180910390fd5b8060018190555050565b6000819050919050565b61052b81610518565b82525050565b60006020820190506105466000830184610522565b92915050565b6000604051905090565b600080fd5b600080fd5b600073ffffffffffffffffffffffffffffffffffffffff82169050919050565b600061058b82610560565b9050919050565b61059b81610580565b81146105a657600080fd5b50565b6000813590506105b881610592565b92915050565b6000602082840312156105d4576105d3610556565b5b60006105e2848285016105a9565b91505092915050565b600080fd5b600080fd5b6000601f19601f8301169050919050565b7f4e487b7100000000000000000000000000000000000000000000000000000000600052604160045260246000fd5b61063e826105f5565b810181811067ffffffffffffffff8211171561065d5761065c610606565b5b80604052505050565b600061067061054c565b905061067c8282610635565b919050565b600067ffffffffffffffff82111561069c5761069b610606565b5b6106a5826105f5565b9050602081019050919050565b82818337600083830152505050565b60006106d46106cf84610681565b610666565b9050828152602081018484840111156106f0576106ef6105f0565b5b6106fb8482856106b2565b509392505050565b600082601f830112610718576107176105eb565b5b81356107288482602086016106c1565b91505092915050565b60006020828403121561074757610746610556565b5b600082013567ffffffffffffffff8111156107655761076461055b565b5b61077184828501610703565b91505092915050565b600061078582610560565b9050919050565b6107958161077a565b82525050565b60006020820190506107b0600083018461078c565b92915050565b6000819050919050565b60006107db6107d66107d184610560565b6107b6565b610560565b9050919050565b60006107ed826107c0565b9050919050565b60006107ff826107e2565b9050919050565b61080f816107f4565b82525050565b600060208201905061082a6000830184610806565b92915050565b61083981610518565b811461084457600080fd5b50565b60008135905061085681610830565b92915050565b60006020828403121561087257610871610556565b5b600061088084828501610847565b91505092915050565b600082825260208201905092915050565b7f536f6c6f20656c2070726f706965746172696f20707565646520656a6563757460008201527f617220657374612066756e63696f6e0000000000000000000000000000000000602082015250565b60006108f6602f83610889565b91506109018261089a565b604082019050919050565b60006020820190508181036000830152610925816108e9565b9050919050565b7f4e6f2068617920666f6e646f7320706172612072657469726172000000000000600082015250565b6000610962601a83610889565b915061096d8261092c565b602082019050919050565b6000602082019050818103600083015261099181610955565b9050919050565b7f4d6f6e746f20696e737566696369656e7465207061726120636f6d707261722060008201527f656c204e46540000000000000000000000000000000000000000000000000000602082015250565b60006109f4602683610889565b91506109ff82610998565b604082019050919050565b60006020820190508181036000830152610a23816109e7565b9050919050565b600081519050919050565b60005b83811015610a53578082015181840152602081019050610a38565b60008484015250505050565b6000610a6a82610a2a565b610a748185610889565b9350610a84818560208601610a35565b610a8d816105f5565b840191505092915050565b6000604082019050610aad600083018561078c565b8181036020830152610abf8184610a5f565b90509392505050565b600081519050610ad781610830565b92915050565b600060208284031215610af357610af2610556565b5b6000610b0184828501610ac8565b91505092915050565b7f48617320636f6d707261646f20756e204e465420636f6e20657869746f000000600082015250565b6000610b40601d83610889565b9150610b4b82610b0a565b602082019050919050565b6000604082019050610b6b6000830184610522565b8181036020830152610b7c81610b33565b905092915050565b7f456c2070726563696f206465626520736572206d61796f722061203000000000600082015250565b6000610bba601c83610889565b9150610bc582610b84565b602082019050919050565b60006020820190508181036000830152610be981610bad565b905091905056fea26469706673582212202fcb6722cefe0f214166f491e80e6d31d2f61bb0c188ad91fcbcffc692b426dc64736f6c63430008110033",
  "linkReferences": {},
  "deployedLinkReferences": {}
}