{
  "_format": "hh-sol-artifact-1",
  "contractName": "NFTDonar",
  "sourceName": "contracts/NFTDonar.sol",
  "abi": [
    {
      "inputs": [
        {
          "internalType": "address",
          "name": "_nftContractAddress",
          "type": "address"
        }
      ],
      "stateMutability": "nonpayable",
      "type": "constructor"
    },
    {
      "anonymous": false,
      "inputs": [
        {
          "indexed": true,
          "internalType": "address",
          "name": "beneficiaryAddress",
          "type": "address"
        }
      ],
      "name": "BeneficiaryAdded",
      "type": "event"
    },
    {
      "anonymous": false,
      "inputs": [
        {
          "indexed": true,
          "internalType": "address",
          "name": "beneficiaryAddress",
          "type": "address"
        },
        {
          "indexed": false,
          "internalType": "bool",
          "name": "hasClaimed",
          "type": "bool"
        }
      ],
      "name": "BeneficiaryStatusUpdated",
      "type": "event"
    },
    {
      "anonymous": false,
      "inputs": [
        {
          "indexed": true,
          "internalType": "address",
          "name": "beneficiary",
          "type": "address"
        },
        {
          "indexed": true,
          "internalType": "uint256",
          "name": "tokenId",
          "type": "uint256"
        }
      ],
      "name": "DonationClaimed",
      "type": "event"
    },
    {
      "anonymous": false,
      "inputs": [
        {
          "indexed": true,
          "internalType": "address",
          "name": "donor",
          "type": "address"
        },
        {
          "indexed": true,
          "internalType": "uint256",
          "name": "tokenId",
          "type": "uint256"
        },
        {
          "indexed": false,
          "internalType": "string",
          "name": "tokenURI",
          "type": "string"
        }
      ],
      "name": "DonationCreated",
      "type": "event"
    },
    {
      "anonymous": false,
      "inputs": [
        {
          "indexed": true,
          "internalType": "address",
          "name": "previousOwner",
          "type": "address"
        },
        {
          "indexed": true,
          "internalType": "address",
          "name": "newOwner",
          "type": "address"
        }
      ],
      "name": "OwnershipTransferred",
      "type": "event"
    },
    {
      "inputs": [
        {
          "internalType": "uint256",
          "name": "",
          "type": "uint256"
        }
      ],
      "name": "activeDonations",
      "outputs": [
        {
          "internalType": "uint256",
          "name": "",
          "type": "uint256"
        }
      ],
      "stateMutability": "view",
      "type": "function"
    },
    {
      "inputs": [
        {
          "internalType": "address",
          "name": "_beneficiaryAddress",
          "type": "address"
        }
      ],
      "name": "addBeneficiary",
      "outputs": [],
      "stateMutability": "nonpayable",
      "type": "function"
    },
    {
      "inputs": [
        {
          "internalType": "address",
          "name": "",
          "type": "address"
        }
      ],
      "name": "beneficiaries",
      "outputs": [
        {
          "internalType": "address",
          "name": "beneficiaryAddress",
          "type": "address"
        },
        {
          "internalType": "bool",
          "name": "hasClaimed",
          "type": "bool"
        }
      ],
      "stateMutability": "view",
      "type": "function"
    },
    {
      "inputs": [
        {
          "internalType": "uint256",
          "name": "_tokenId",
          "type": "uint256"
        }
      ],
      "name": "claimDonation",
      "outputs": [],
      "stateMutability": "nonpayable",
      "type": "function"
    },
    {
      "inputs": [
        {
          "internalType": "uint256",
          "name": "_tokenId",
          "type": "uint256"
        },
        {
          "internalType": "string",
          "name": "_tokenURI",
          "type": "string"
        }
      ],
      "name": "createDonation",
      "outputs": [],
      "stateMutability": "nonpayable",
      "type": "function"
    },
    {
      "inputs": [
        {
          "internalType": "uint256",
          "name": "",
          "type": "uint256"
        }
      ],
      "name": "donations",
      "outputs": [
        {
          "internalType": "address",
          "name": "donor",
          "type": "address"
        },
        {
          "internalType": "uint256",
          "name": "tokenId",
          "type": "uint256"
        },
        {
          "internalType": "bool",
          "name": "claimed",
          "type": "bool"
        },
        {
          "internalType": "string",
          "name": "tokenURI",
          "type": "string"
        }
      ],
      "stateMutability": "view",
      "type": "function"
    },
    {
      "inputs": [],
      "name": "getActiveDonationDetails",
      "outputs": [
        {
          "components": [
            {
              "internalType": "address",
              "name": "donor",
              "type": "address"
            },
            {
              "internalType": "uint256",
              "name": "tokenId",
              "type": "uint256"
            },
            {
              "internalType": "bool",
              "name": "claimed",
              "type": "bool"
            },
            {
              "internalType": "string",
              "name": "tokenURI",
              "type": "string"
            }
          ],
          "internalType": "struct NFTDonar.Donation[]",
          "name": "",
          "type": "tuple[]"
        }
      ],
      "stateMutability": "view",
      "type": "function"
    },
    {
      "inputs": [
        {
          "internalType": "uint256",
          "name": "_tokenId",
          "type": "uint256"
        }
      ],
      "name": "getDonationDetails",
      "outputs": [
        {
          "components": [
            {
              "internalType": "address",
              "name": "donor",
              "type": "address"
            },
            {
              "internalType": "uint256",
              "name": "tokenId",
              "type": "uint256"
            },
            {
              "internalType": "bool",
              "name": "claimed",
              "type": "bool"
            },
            {
              "internalType": "string",
              "name": "tokenURI",
              "type": "string"
            }
          ],
          "internalType": "struct NFTDonar.Donation",
          "name": "",
          "type": "tuple"
        }
      ],
      "stateMutability": "view",
      "type": "function"
    },
    {
      "inputs": [],
      "name": "nftContract",
      "outputs": [
        {
          "internalType": "contract IERC721",
          "name": "",
          "type": "address"
        }
      ],
      "stateMutability": "view",
      "type": "function"
    },
    {
      "inputs": [],
      "name": "owner",
      "outputs": [
        {
          "internalType": "address",
          "name": "",
          "type": "address"
        }
      ],
      "stateMutability": "view",
      "type": "function"
    },
    {
      "inputs": [],
      "name": "renounceOwnership",
      "outputs": [],
      "stateMutability": "nonpayable",
      "type": "function"
    },
    {
      "inputs": [
        {
          "internalType": "address",
          "name": "newOwner",
          "type": "address"
        }
      ],
      "name": "transferOwnership",
      "outputs": [],
      "stateMutability": "nonpayable",
      "type": "function"
    },
    {
      "inputs": [
        {
          "internalType": "address",
          "name": "_beneficiaryAddress",
          "type": "address"
        },
        {
          "internalType": "bool",
          "name": "_hasClaimed",
          "type": "bool"
        }
      ],
      "name": "updateBeneficiaryStatus",
      "outputs": [],
      "stateMutability": "nonpayable",
      "type": "function"
    }
  ],
  "bytecode": "0x60806040523480156200001157600080fd5b50604051620026f9380380620026f98339818101604052810190620000379190620001d5565b620000576200004b6200009f60201b60201c565b620000a760201b60201c565b80600160006101000a81548173ffffffffffffffffffffffffffffffffffffffff021916908373ffffffffffffffffffffffffffffffffffffffff1602179055505062000207565b600033905090565b60008060009054906101000a900473ffffffffffffffffffffffffffffffffffffffff169050816000806101000a81548173ffffffffffffffffffffffffffffffffffffffff021916908373ffffffffffffffffffffffffffffffffffffffff1602179055508173ffffffffffffffffffffffffffffffffffffffff168173ffffffffffffffffffffffffffffffffffffffff167f8be0079c531659141344cd1fd0a4f28419497f9722a3daafe3b4186f6b6457e060405160405180910390a35050565b600080fd5b600073ffffffffffffffffffffffffffffffffffffffff82169050919050565b60006200019d8262000170565b9050919050565b620001af8162000190565b8114620001bb57600080fd5b50565b600081519050620001cf81620001a4565b92915050565b600060208284031215620001ee57620001ed6200016b565b5b6000620001fe84828501620001be565b91505092915050565b6124e280620002176000396000f3fe608060405234801561001057600080fd5b50600436106100cf5760003560e01c80638da5cb5b1161008c578063eb564d3511610066578063eb564d35146101d9578063f2fde38b14610209578063f43acb2b14610225578063f8626af814610255576100cf565b80638da5cb5b14610181578063affb2c841461019f578063d56d229d146101bb576100cf565b806301567739146100d457806333fa676e146101055780633a889886146101215780635926651d1461013d578063715018a6146101595780637429b6e914610163575b600080fd5b6100ee60048036038101906100e991906114f7565b610288565b6040516100fc92919061154e565b60405180910390f35b61011f600480360381019061011a91906116f3565b6102d9565b005b61013b6004803603810190610136919061177b565b61066b565b005b610157600480360381019061015291906114f7565b6107f0565b005b6101616109e6565b005b61016b6109fa565b604051610178919061198c565b60405180910390f35b610189610beb565b60405161019691906119ae565b60405180910390f35b6101b960048036038101906101b491906119c9565b610c14565b005b6101c3610f44565b6040516101d09190611a55565b60405180910390f35b6101f360048036038101906101ee91906119c9565b610f6a565b6040516102009190611ad3565b60405180910390f35b610223600480360381019061021e91906114f7565b6110a4565b005b61023f600480360381019061023a91906119c9565b611127565b60405161024c9190611b04565b60405180910390f35b61026f600480360381019061026a91906119c9565b61114b565b60405161027f9493929190611b69565b60405180910390f35b60036020528060005260406000206000915090508060000160009054906101000a900473ffffffffffffffffffffffffffffffffffffffff16908060000160149054906101000a900460ff16905082565b600073ffffffffffffffffffffffffffffffffffffffff166002600084815260200190815260200160002060000160009054906101000a900473ffffffffffffffffffffffffffffffffffffffff1673ffffffffffffffffffffffffffffffffffffffff161461037e576040517f08c379a000000000000000000000000000000000000000000000000000000000815260040161037590611c01565b60405180910390fd5b3373ffffffffffffffffffffffffffffffffffffffff16600160009054906101000a900473ffffffffffffffffffffffffffffffffffffffff1673ffffffffffffffffffffffffffffffffffffffff16636352211e846040518263ffffffff1660e01b81526004016103f09190611b04565b602060405180830381865afa15801561040d573d6000803e3d6000fd5b505050506040513d601f19601f820116820180604052508101906104319190611c36565b73ffffffffffffffffffffffffffffffffffffffff1614610487576040517f08c379a000000000000000000000000000000000000000000000000000000000815260040161047e90611caf565b60405180910390fd5b600160009054906101000a900473ffffffffffffffffffffffffffffffffffffffff1673ffffffffffffffffffffffffffffffffffffffff166323b872dd3330856040518463ffffffff1660e01b81526004016104e693929190611ccf565b600060405180830381600087803b15801561050057600080fd5b505af1158015610514573d6000803e3d6000fd5b5050505060405180608001604052803373ffffffffffffffffffffffffffffffffffffffff168152602001838152602001600015158152602001828152506002600084815260200190815260200160002060008201518160000160006101000a81548173ffffffffffffffffffffffffffffffffffffffff021916908373ffffffffffffffffffffffffffffffffffffffff1602179055506020820151816001015560408201518160020160006101000a81548160ff02191690831515021790555060608201518160030190816105eb9190611f08565b509050506004829080600181540180825580915050600190039060005260206000200160009091909190915055813373ffffffffffffffffffffffffffffffffffffffff167f66116faf706544b53fa62f6d3caff9f51913d6f88ed54510426c21e0611a26b08360405161065f9190611fda565b60405180910390a35050565b610673611230565b600073ffffffffffffffffffffffffffffffffffffffff16600360008473ffffffffffffffffffffffffffffffffffffffff1673ffffffffffffffffffffffffffffffffffffffff16815260200190815260200160002060000160009054906101000a900473ffffffffffffffffffffffffffffffffffffffff1673ffffffffffffffffffffffffffffffffffffffff1603610744576040517f08c379a000000000000000000000000000000000000000000000000000000000815260040161073b9061206e565b60405180910390fd5b80600360008473ffffffffffffffffffffffffffffffffffffffff1673ffffffffffffffffffffffffffffffffffffffff16815260200190815260200160002060000160146101000a81548160ff0219169083151502179055508173ffffffffffffffffffffffffffffffffffffffff167f11dd624c11f64dd438c72f37d0c1c16c808db0b93317f227abab80d3a4f674da826040516107e4919061208e565b60405180910390a25050565b6107f8611230565b600073ffffffffffffffffffffffffffffffffffffffff16600360008373ffffffffffffffffffffffffffffffffffffffff1673ffffffffffffffffffffffffffffffffffffffff16815260200190815260200160002060000160009054906101000a900473ffffffffffffffffffffffffffffffffffffffff1673ffffffffffffffffffffffffffffffffffffffff16146108c9576040517f08c379a00000000000000000000000000000000000000000000000000000000081526004016108c09061211b565b60405180910390fd5b60405180604001604052808273ffffffffffffffffffffffffffffffffffffffff16815260200160001515815250600360008373ffffffffffffffffffffffffffffffffffffffff1673ffffffffffffffffffffffffffffffffffffffff16815260200190815260200160002060008201518160000160006101000a81548173ffffffffffffffffffffffffffffffffffffffff021916908373ffffffffffffffffffffffffffffffffffffffff16021790555060208201518160000160146101000a81548160ff0219169083151502179055509050508073ffffffffffffffffffffffffffffffffffffffff167fc3e089fc6227e049d0e41c3d7a383d57efe69c1955c5752f7e5a9b5f1f11302060405160405180910390a250565b6109ee611230565b6109f860006112ae565b565b6060600060048054905067ffffffffffffffff811115610a1d57610a1c6115c8565b5b604051908082528060200260200182016040528015610a5657816020015b610a43611445565b815260200190600190039081610a3b5790505b50905060005b600480549050811015610be3576002600060048381548110610a8157610a8061213b565b5b906000526020600020015481526020019081526020016000206040518060800160405290816000820160009054906101000a900473ffffffffffffffffffffffffffffffffffffffff1673ffffffffffffffffffffffffffffffffffffffff1673ffffffffffffffffffffffffffffffffffffffff168152602001600182015481526020016002820160009054906101000a900460ff16151515158152602001600382018054610b3090611d35565b80601f0160208091040260200160405190810160405280929190818152602001828054610b5c90611d35565b8015610ba95780601f10610b7e57610100808354040283529160200191610ba9565b820191906000526020600020905b815481529060010190602001808311610b8c57829003601f168201915b505050505081525050828281518110610bc557610bc461213b565b5b60200260200101819052508080610bdb90612199565b915050610a5c565b508091505090565b60008060009054906101000a900473ffffffffffffffffffffffffffffffffffffffff16905090565b600073ffffffffffffffffffffffffffffffffffffffff16600360003373ffffffffffffffffffffffffffffffffffffffff1673ffffffffffffffffffffffffffffffffffffffff16815260200190815260200160002060000160009054906101000a900473ffffffffffffffffffffffffffffffffffffffff1673ffffffffffffffffffffffffffffffffffffffff1603610ce5576040517f08c379a0000000000000000000000000000000000000000000000000000000008152600401610cdc90612253565b60405180910390fd5b600360003373ffffffffffffffffffffffffffffffffffffffff1673ffffffffffffffffffffffffffffffffffffffff16815260200190815260200160002060000160149054906101000a900460ff1615610d75576040517f08c379a0000000000000000000000000000000000000000000000000000000008152600401610d6c906122bf565b60405180910390fd5b6002600082815260200190815260200160002060020160009054906101000a900460ff1615610dd9576040517f08c379a0000000000000000000000000000000000000000000000000000000008152600401610dd09061232b565b60405180910390fd5b60016002600083815260200190815260200160002060020160006101000a81548160ff0219169083151502179055506001600360003373ffffffffffffffffffffffffffffffffffffffff1673ffffffffffffffffffffffffffffffffffffffff16815260200190815260200160002060000160146101000a81548160ff021916908315150217905550600160009054906101000a900473ffffffffffffffffffffffffffffffffffffffff1673ffffffffffffffffffffffffffffffffffffffff166323b872dd3033846040518463ffffffff1660e01b8152600401610ec293929190611ccf565b600060405180830381600087803b158015610edc57600080fd5b505af1158015610ef0573d6000803e3d6000fd5b50505050610efd81611372565b803373ffffffffffffffffffffffffffffffffffffffff167fcea3075acde4774a33609cbbcdc18b7f2e492e6c21502369ccb7d7dbac607c3460405160405180910390a350565b600160009054906101000a900473ffffffffffffffffffffffffffffffffffffffff1681565b610f72611445565b600260008381526020019081526020016000206040518060800160405290816000820160009054906101000a900473ffffffffffffffffffffffffffffffffffffffff1673ffffffffffffffffffffffffffffffffffffffff1673ffffffffffffffffffffffffffffffffffffffff168152602001600182015481526020016002820160009054906101000a900460ff1615151515815260200160038201805461101b90611d35565b80601f016020809104026020016040519081016040528092919081815260200182805461104790611d35565b80156110945780601f1061106957610100808354040283529160200191611094565b820191906000526020600020905b81548152906001019060200180831161107757829003601f168201915b5050505050815250509050919050565b6110ac611230565b600073ffffffffffffffffffffffffffffffffffffffff168173ffffffffffffffffffffffffffffffffffffffff160361111b576040517f08c379a0000000000000000000000000000000000000000000000000000000008152600401611112906123bd565b60405180910390fd5b611124816112ae565b50565b6004818154811061113757600080fd5b906000526020600020016000915090505481565b60026020528060005260406000206000915090508060000160009054906101000a900473ffffffffffffffffffffffffffffffffffffffff16908060010154908060020160009054906101000a900460ff16908060030180546111ad90611d35565b80601f01602080910402602001604051908101604052809291908181526020018280546111d990611d35565b80156112265780601f106111fb57610100808354040283529160200191611226565b820191906000526020600020905b81548152906001019060200180831161120957829003601f168201915b5050505050905084565b61123861143d565b73ffffffffffffffffffffffffffffffffffffffff16611256610beb565b73ffffffffffffffffffffffffffffffffffffffff16146112ac576040517f08c379a00000000000000000000000000000000000000000000000000000000081526004016112a390612429565b60405180910390fd5b565b60008060009054906101000a900473ffffffffffffffffffffffffffffffffffffffff169050816000806101000a81548173ffffffffffffffffffffffffffffffffffffffff021916908373ffffffffffffffffffffffffffffffffffffffff1602179055508173ffffffffffffffffffffffffffffffffffffffff168173ffffffffffffffffffffffffffffffffffffffff167f8be0079c531659141344cd1fd0a4f28419497f9722a3daafe3b4186f6b6457e060405160405180910390a35050565b60005b6004805490508110156114395781600482815481106113975761139661213b565b5b90600052602060002001540361142657600460016004805490506113bb9190612449565b815481106113cc576113cb61213b565b5b9060005260206000200154600482815481106113eb576113ea61213b565b5b9060005260206000200181905550600480548061140b5761140a61247d565b5b60019003818190600052602060002001600090559055611439565b808061143190612199565b915050611375565b5050565b600033905090565b6040518060800160405280600073ffffffffffffffffffffffffffffffffffffffff16815260200160008152602001600015158152602001606081525090565b6000604051905090565b600080fd5b600080fd5b600073ffffffffffffffffffffffffffffffffffffffff82169050919050565b60006114c482611499565b9050919050565b6114d4816114b9565b81146114df57600080fd5b50565b6000813590506114f1816114cb565b92915050565b60006020828403121561150d5761150c61148f565b5b600061151b848285016114e2565b91505092915050565b61152d816114b9565b82525050565b60008115159050919050565b61154881611533565b82525050565b60006040820190506115636000830185611524565b611570602083018461153f565b9392505050565b6000819050919050565b61158a81611577565b811461159557600080fd5b50565b6000813590506115a781611581565b92915050565b600080fd5b600080fd5b6000601f19601f8301169050919050565b7f4e487b7100000000000000000000000000000000000000000000000000000000600052604160045260246000fd5b611600826115b7565b810181811067ffffffffffffffff8211171561161f5761161e6115c8565b5b80604052505050565b6000611632611485565b905061163e82826115f7565b919050565b600067ffffffffffffffff82111561165e5761165d6115c8565b5b611667826115b7565b9050602081019050919050565b82818337600083830152505050565b600061169661169184611643565b611628565b9050828152602081018484840111156116b2576116b16115b2565b5b6116bd848285611674565b509392505050565b600082601f8301126116da576116d96115ad565b5b81356116ea848260208601611683565b91505092915050565b6000806040838503121561170a5761170961148f565b5b600061171885828601611598565b925050602083013567ffffffffffffffff81111561173957611738611494565b5b611745858286016116c5565b9150509250929050565b61175881611533565b811461176357600080fd5b50565b6000813590506117758161174f565b92915050565b600080604083850312156117925761179161148f565b5b60006117a0858286016114e2565b92505060206117b185828601611766565b9150509250929050565b600081519050919050565b600082825260208201905092915050565b6000819050602082019050919050565b6117f0816114b9565b82525050565b6117ff81611577565b82525050565b61180e81611533565b82525050565b600081519050919050565b600082825260208201905092915050565b60005b8381101561184e578082015181840152602081019050611833565b60008484015250505050565b600061186582611814565b61186f818561181f565b935061187f818560208601611830565b611888816115b7565b840191505092915050565b60006080830160008301516118ab60008601826117e7565b5060208301516118be60208601826117f6565b5060408301516118d16040860182611805565b50606083015184820360608601526118e9828261185a565b9150508091505092915050565b60006119028383611893565b905092915050565b6000602082019050919050565b6000611922826117bb565b61192c81856117c6565b93508360208202850161193e856117d7565b8060005b8581101561197a578484038952815161195b85826118f6565b94506119668361190a565b925060208a01995050600181019050611942565b50829750879550505050505092915050565b600060208201905081810360008301526119a68184611917565b905092915050565b60006020820190506119c36000830184611524565b92915050565b6000602082840312156119df576119de61148f565b5b60006119ed84828501611598565b91505092915050565b6000819050919050565b6000611a1b611a16611a1184611499565b6119f6565b611499565b9050919050565b6000611a2d82611a00565b9050919050565b6000611a3f82611a22565b9050919050565b611a4f81611a34565b82525050565b6000602082019050611a6a6000830184611a46565b92915050565b6000608083016000830151611a8860008601826117e7565b506020830151611a9b60208601826117f6565b506040830151611aae6040860182611805565b5060608301518482036060860152611ac6828261185a565b9150508091505092915050565b60006020820190508181036000830152611aed8184611a70565b905092915050565b611afe81611577565b82525050565b6000602082019050611b196000830184611af5565b92915050565b600082825260208201905092915050565b6000611b3b82611814565b611b458185611b1f565b9350611b55818560208601611830565b611b5e816115b7565b840191505092915050565b6000608082019050611b7e6000830187611524565b611b8b6020830186611af5565b611b98604083018561153f565b8181036060830152611baa8184611b30565b905095945050505050565b7f456c204e4654207961206573746120656e20646f6e6163696f6e000000000000600082015250565b6000611beb601a83611b1f565b9150611bf682611bb5565b602082019050919050565b60006020820190508181036000830152611c1a81611bde565b9050919050565b600081519050611c30816114cb565b92915050565b600060208284031215611c4c57611c4b61148f565b5b6000611c5a84828501611c21565b91505092915050565b7f4e6f206572657320656c2070726f706965746172696f2064656c204e46540000600082015250565b6000611c99601e83611b1f565b9150611ca482611c63565b602082019050919050565b60006020820190508181036000830152611cc881611c8c565b9050919050565b6000606082019050611ce46000830186611524565b611cf16020830185611524565b611cfe6040830184611af5565b949350505050565b7f4e487b7100000000000000000000000000000000000000000000000000000000600052602260045260246000fd5b60006002820490506001821680611d4d57607f821691505b602082108103611d6057611d5f611d06565b5b50919050565b60008190508160005260206000209050919050565b60006020601f8301049050919050565b600082821b905092915050565b600060088302611dc87fffffffffffffffffffffffffffffffffffffffffffffffffffffffffffffffff82611d8b565b611dd28683611d8b565b95508019841693508086168417925050509392505050565b6000611e05611e00611dfb84611577565b6119f6565b611577565b9050919050565b6000819050919050565b611e1f83611dea565b611e33611e2b82611e0c565b848454611d98565b825550505050565b600090565b611e48611e3b565b611e53818484611e16565b505050565b5b81811015611e7757611e6c600082611e40565b600181019050611e59565b5050565b601f821115611ebc57611e8d81611d66565b611e9684611d7b565b81016020851015611ea5578190505b611eb9611eb185611d7b565b830182611e58565b50505b505050565b600082821c905092915050565b6000611edf60001984600802611ec1565b1980831691505092915050565b6000611ef88383611ece565b9150826002028217905092915050565b611f1182611814565b67ffffffffffffffff811115611f2a57611f296115c8565b5b611f348254611d35565b611f3f828285611e7b565b600060209050601f831160018114611f725760008415611f60578287015190505b611f6a8582611eec565b865550611fd2565b601f198416611f8086611d66565b60005b82811015611fa857848901518255600182019150602085019450602081019050611f83565b86831015611fc55784890151611fc1601f891682611ece565b8355505b6001600288020188555050505b505050505050565b60006020820190508181036000830152611ff48184611b30565b905092915050565b7f456c2062656e65666963696172696f206e6f206573746120726567697374726160008201527f646f000000000000000000000000000000000000000000000000000000000000602082015250565b6000612058602283611b1f565b915061206382611ffc565b604082019050919050565b600060208201905081810360008301526120878161204b565b9050919050565b60006020820190506120a3600083018461153f565b92915050565b7f456c2062656e65666963696172696f207961206573746120726567697374726160008201527f646f000000000000000000000000000000000000000000000000000000000000602082015250565b6000612105602283611b1f565b9150612110826120a9565b604082019050919050565b60006020820190508181036000830152612134816120f8565b9050919050565b7f4e487b7100000000000000000000000000000000000000000000000000000000600052603260045260246000fd5b7f4e487b7100000000000000000000000000000000000000000000000000000000600052601160045260246000fd5b60006121a482611577565b91507fffffffffffffffffffffffffffffffffffffffffffffffffffffffffffffffff82036121d6576121d561216a565b5b600182019050919050565b7f4e6f206572657320756e2062656e65666963696172696f206175746f72697a6160008201527f646f000000000000000000000000000000000000000000000000000000000000602082015250565b600061223d602283611b1f565b9150612248826121e1565b604082019050919050565b6000602082019050818103600083015261226c81612230565b9050919050565b7f596120686173207265636c616d61646f20756e6120646f6e6163696f6e000000600082015250565b60006122a9601d83611b1f565b91506122b482612273565b602082019050919050565b600060208201905081810360008301526122d88161229c565b9050919050565b7f4c6120646f6e6163696f6e207961206861207369646f207265636c616d616461600082015250565b6000612315602083611b1f565b9150612320826122df565b602082019050919050565b6000602082019050818103600083015261234481612308565b9050919050565b7f4f776e61626c653a206e6577206f776e657220697320746865207a65726f206160008201527f6464726573730000000000000000000000000000000000000000000000000000602082015250565b60006123a7602683611b1f565b91506123b28261234b565b604082019050919050565b600060208201905081810360008301526123d68161239a565b9050919050565b7f4f776e61626c653a2063616c6c6572206973206e6f7420746865206f776e6572600082015250565b6000612413602083611b1f565b915061241e826123dd565b602082019050919050565b6000602082019050818103600083015261244281612406565b9050919050565b600061245482611577565b915061245f83611577565b92508282039050818111156124775761247661216a565b5b92915050565b7f4e487b7100000000000000000000000000000000000000000000000000000000600052603160045260246000fdfea2646970667358221220ba5c9932a601d4e2aea7f0b6e2223b0b40601d12f05ce4f5ba71693a233dc8c664736f6c63430008110033",
  "linkReferences": {},
  "deployedLinkReferences": {}
}